:020000040000fa
:10000000f83f0020491500001f0f0000a71700004f
:1000100000000000000000000000000000000000e0
:10002000000000000000000000000000a119000016
:100030000000000000000000e11500002d19000084
:10004000af0c0000af0c0000a9170000c1100000a9
:10005000af0c0000af0c0000af0c0000310d000031
:10006000af0c0000af0c0000af0c0000af0c0000a4
:10007000af0c0000af0c0000af0c0000af0c000094
:10008000af0c0000af0c0000af0c0000af0c000084
:10009000af0c0000af0c0000af0c0000af0c000074
:0c00a000af0c0000af0c0000af0c000023
:020000040000fa
:1000ac00f8b5c046f8bc08bc9e467047e114000089
:1000bc00f8b5c046f8bc08bc9e467047b9140000a1
:020000040000fa
:1000cc000023f0b506001500b1b007910393079912
:1000dc000b78002b00d10ce101235b420c9310ab8d
:1000ec0000240e9380230b940d940f930b5d002b27
:1000fc0001d0252b2ad1002c06d02200300001f093
:10010c00abfa079b1b190793079b1a78252a00d07b
:10011c00e4e0013304930793022301219c4610274a
:10012c00079803782b2b1ad025d8202b1ad0232be9
:10013c001dd02a2b28d001f06ffa0d90079b1a784e
:10014c00303a092a31d801330793f7e70134cde768
:10015c000b9b05930b4301300b930790e0e70423b3
:10016c000b9a0fe00b9b0593059a08230ae00b9b57
:10017c0005933b43efe72d2bead0302bd9d16246c8
:10018c000b9b05931343e6e72b6801301a1d1b6884
:10019c0007902a600d93002b07da0b9a5b420592ad
:1001ac00012205990d934a400b920b9bda0702d55d
:1001bc00022293430b93079b1a782e2a0ed100220e
:1001cc00581c0c9207905a782a2a27d1023307938d
:1001dc002b681a1d1b682a6005930c9307a801f065
:1001ec008ffa079b0700187801f004fd692800d1ed
:1001fc0082e034dc632800d1dbe01adc252800d156
:10020c00e8e0612858d0049b012207930023524256
:10021c000c920b930d9300930232e5e001f0fcf984
:10022c000c90079b1a78303a092ad7d801330793d8
:10023c00f7e7642860d06728e5dc2a00390008a8b5
:10024c0001f008fb002800d1afe0079b0ba95a1c5a
:10025c0007921b7808aa300001f0fcfc3de07028e6
:10026c0000d17de016dc6e2800d197e06f28cad152
:10027c002b000022390008a800f01afc002800d13d
:10028c0093e0079b08aa01330ba93000079301f0f8
:10029c00dffc22e0752840d078284fd07328b2d1eb
:1002ac00802f00d081e0079b2a6801330793131d30
:1002bc002b601268002388e02a00390008a801f09e
:1002cc00c9fa002800d170e0079b0ba95a1c0792b1
:1002dc001b7808aa300001f0bdfc2418039b1c19e4
:1002ec00a34200dc82e04f22414b1a6001235b42a7
:1002fc000393039831b0f0bd2b000122390008a8fc
:10030c0000f0d6fb002850d0079b08aa01330ba99c
:10031c003000079301f09cfcdfe72b000022390032
:10032c0008a800f0c5fb00283fd0079b08aa0133a2
:10033c000ba93000079301f08bfccee72b000022b9
:10034c00390008a800f0b4fb00282ed0079b5a1cdb
:10035c0007921b7808aa0ba9300001f07bfcbce7c4
:10036c002b000022f02108a800f0a2fb00281cd0d2
:10037c00079b099a01330793089b13430cd11d4f1c
:10038c00380001f06ffb390002000b9b00930d9bb2
:10039c00300000f081fda0e77823dbe7039b3900f8
:1003ac001a1908a82b0000f0edfd079b01330793e9
:1003bc0094e7802ff9d1079b013307932b681a1d03
:1003cc001b682a6008aa137001230ba9300000f0e7
:1003dc00cfff82e7802fe8d10122079b01330793df
:1003ec000b9b049300930d9b0349d1e703946ee69a
:0c03fc007c060020301c0000361c0000b5
:020000040000fa
:10040800e00500201c00000000000000000600209d
:10041800300000000000000008040020c0000000b8
:1004280000000000300600200c0000000000000062
:10043800840600200300000000000000c80400201b
:100448006400000000000000870600200100000092
:100458000100000001000000fc050020040000006d
:100468000000000050060020080000000000000006
:100478002c05002064000000000000005806002041
:1004880004000000000000005c06002004000000da
:1004980000000000600600200c00000000000000c2
:1004a8006c06002008000000000000007406002010
:1004b800040000000000000090050020500000002b
:1004c80000000000880600206c0000000100000009
:1004d80094060020900600209406002000000000ea
:1004e80025000000080000200004000000000000b3
:1004f80000000000000000000000000000000000f4
:10050800000000000000000000000000651c000062
:1005180000000000000000000000000000000000d3
:10052800f90f0000000000000000000000000000bb
:100538000000000000000000000000000000002093
:1005480008040000000000005407002020000000fc
:10055800010000000100000003000000000000008e
:100568000000000000000000000000000000000083
:10057800480600204806002008000000000000008f
:10058800780600200800000000000000f4060020a3
:1005980060000000010000000100000003000000ee
:1005a8000000000000000000000000000000000043
:1005b800000000007d1100000000000000000000a5
:1005c80000000000971900000f1c00000000000048
:1005d8000000000000000000000000000000000013
:1005e8000000000000000000000000000000000003
:1005f8000000000000000000740700200400000054
:100608000100000001000000800600200400000036
:10061800000000003c0600200c0000000000000064
:100628000000000000000000666666666666666692
:020000040000fa
:10063800f0b5d6464f464646c0b582b0534b1b6808
:10064800002b00d094e0524b1d6801351d60002d31
:1006580018d0504b1b68ab4221d9002301934e4b55
:100668001b68da6a93009b189b004c4a9b58012b25
:1006780001d9012301934a4b1b68002b7ed001232b
:1006880001937be0474a1168474b1868106019606e
:10069800464a13680133136001f0c8f8d9e700230c
:1006a8000193404eb246424b9c4698463b4c37e03d
:1006b800384b012252421a60d1e7364b1a60cee716
:1006c800da68426041e01a6a426000229a6202686f
:1006d800013a0260d86a62461268904201d94246dd
:1006e8001060820012189200a21852689a609068ee
:1006f800d86041609160d96a8a00501880008146ac
:10070800a1444846586150188000025901320251ec
:10071800214a1168da6acb6a9a4201d90123019306
:1007280033681b68002bc3d053461b68db68db6843
:100738005a689542c1d358699a68d96891609a688d
:100748004a60191d42688a42bad000225a6102687a
:10075800013a0260986a0028bcd01a6adf69ba6058
:10076800df6957601a00183247689742add1aae787
:10077800104a13680133136000230193019802b0f3
:100788001cbc90469946a246f0bdc04658060020bb
:100798006c06002060060020fc0500202c050020c7
:1007a8007006002050060020540600206406002031
:0807b8005c0600206806002029
:020000040000fa
:1007c000f0b5d646474680b59bb06422002101a80b
:1007d00001f0c4f9002000f02bfd0022454906205d
:1007e00001f068f800224449002001f0f1f90021ed
:1007f000424801f00dfa4249424b0a0013cb13c2a2
:1008000013cb13c213cb13c2196811601b79137178
:1008100001f0f6f83c4c3d4da046002616e043465c
:100820001e703a4b1e708223db0580221204da61af
:10083000334f380001f01cf90300354a390030000d
:1008400000f0d8f8334b1b78002b06d12378002b0f
:10085000f8d02b78002bf5d0e1e72e4b1e702e4bf5
:100860001b78002b29d12c4b01221a708020c0004c
:1008700001f042f9300001f035f9284f264b9a4635
:100880001b789a00d2189200ba18254901a801f0e5
:1008900007f901a801f0ecf803001d4a01a9300096
:1008a00000f0a8f853461b789a00d2189200ba18a4
:1008b0001c49134801f0f4f8c8e7012b0ad0022bb9
:1008c00010d0032bd6d1144b1e708020800001f075
:1008d00013f9cfe7104b02221a708020000101f0bb
:1008e0000bf9c7e70c4b03221a708020400101f07e
:1008f00003f9bfe71d1c00000d1b0000e11b0000f9
:10090000c8040020200f0000850600208706002074
:10091000280800428406002086060020dc12000021
:080920004c0f0000740f0000f1
:020000040000fa
:1009280010b52c4b1b68002b03d02b4b01221a60ef
:1009380010bd294b00221a60284b1b681b6b284ae4
:100948001968914202d15968914235d0234b1968f0
:100958001868343101f07af9224b1b689a00d218d2
:10096800920021495258002a0bd19a00d2189200bd
:10097800143a11001c4a5218013b143a51690029d3
:10098800fad019489a00d118890041184c6864684f
:100998004c60d218920008328218944213d09a0000
:1009a800d218920010498a185268d1680b4a11600f
:1009b8000c490b601368bbe799689142c6d1db68a4
:1009c8009342c3d1c8e79a00d21892008218d1681e
:1009d8005160e4e75806002070060020fc0500205e
:0c09e800a5a5a5a55c0600202c0500209c
:020000040000fa
:1009f400f0b505012d4c6419267bf6b22c4d3f272a
:100a0400ec5de4b2e8550f37ed5dad0702d100258a
:100a1400002e3bd1264e4e25032777550501234e44
:100a24007619023f3773234ead5b6d0533d5c91874
:100a34000601204dad19696001011e4d495b090590
:100a44002ed5d21805011b4949198a601949050197
:100a54006a5a9205920fd3409bb249194b80144aab
:100a64004021535c02252b435354516c536c9b041b
:100a74009b0e08220a4013430125002b06d10c4a81
:100a84001169012383400b4313610125084a3f2365
:100a9400d4542800f0bd0601064dad196960cbe7ba
:100aa4000501044949198a60d0e7c04610060020b0
:080ab400006000410006002073
:020000040000fa
:100abc0010b588293cd015dc81294dd003dc802968
:100acc004ad0002010bd822911d08429f9d119688f
:100adc00002a26d00a1d1a6000228b5e0360db17e9
:100aec00436011e0a02930d010dc9029e9d11968bd
:100afc000724002a2ed00919a1430a0008321a60d3
:100b0c000b684c68036044600120dbe7c02901d00e
:100b1c00f029d6d11a68111d1960136803600023df
:100b2c00dee70c1d1c600b689bb203604260ebe7b8
:100b3c001968002a04d00a1d1a600023cb56cde791
:100b4c000c1d1c600b68dbb2efe71a68111d1960f5
:100b5c001368c3e70731cfe71968002a03d00a1dd1
:0e0b6c001a600b68bae70c1d1c600b68dde711
:020000040000fa
:020b7a007047c2
:020000040000fa
:100b7c00244b5a6852031b68db0c13439b029b0ae1
:100b8c00214a936300235375110004228b691a4286
:100b9c00fcd11d491022cb681a42fcd01a4a137d95
:100bac0080210b431375194b00229a611a61184b63
:100bbc00184a1a62190004224b681a42fcd1144ad2
:100bcc0088234021d15010004831402243581a420a
:100bdc00fcd00f4ad0234021d1501000903140223c
:100bec0043581a42fcd00a4af0234021d15010003d
:100bfc00b031402243581a42fcd0074b074ada6105
:100c0c007047c04620608000001000400014004077
:100c1c00001c004006010100000800400400020016
:020000040000fa
:100c2c00f0b51600050002278369426987b002936c
:100c3c00d31a03939b1904910596019302ac3a00c5
:100c4c002100286800f058fe019b984208d1ab683f
:100c5c00ea68ab619a18aa626b61300007b0f0bd0c
:100c6c0000280cda102200236968ab620a43ab61de
:100c7c006b616a60022f12d06368f61aede7019b74
:100c8c001b1a01936368984202d9c01a0834013fb9
:100c9c0023681b1823606368181a6060cfe71e0076
:020cac00dbe784
:020000040000fa
:020cae00fee75f
:020000040000fa
:100cb0001e4bf0b51c68231e0dd00022210015002c
:100cc00013000f68bc460f6984450bd1002a06d07b
:100cd00017610b0010331800f0bd3900f1e7134b1a
:100ce0001f60f6e7844504d9002b1ad01e68b4456e
:100cf00017d30a00002ff0d1002becd01f001a6888
:100d00001969121a1037102a05d9186038180161ac
:100d10000100103a02609c4206d1044b19603b006e
:100d2000d9e715000b00e4e72961f8e78006002009
:020000040000fa
:100d300010b582b0002301931a4a118c0f330b4077
:100d40003f21545ce4b253540f31525cd2b2019251
:100d5000019a0220920708d512494e22885419019f
:100d6000114a5218002111730138019ad20709d58e
:100d70000c494e220120885419010b4a52180021b7
:100d8000117301301901084a52185268002a04d020
:100d9000054a531899685b689847024a3f23d45420
:0c0da00002b010bd0060004110060020f1
:020000040000fa
:100dac0010b51c4a137801210b431370110001225a
:100dbc004b681a42fcd1174980235b04cb6100239a
:100dcc000b6240330b61144b10221a819a821a84e5
:100ddc009a851a8744201a520c3006241c520c3067
:100dec001a520c301a520c301a520c301a520c3057
:100dfc001a520c301a520c301a520c301a520c3047
:100e0c001a520b78022213430b7002224b681a42bf
:0c0e1c00fcd110bd00280040080400209c
:020000040000fa
:100e2800f8b5846a05000f001600002c0ad0ab6ada
:100e38006a699b1ab3420cd2320039002800fff7c6
:100e4800f1fe05e000f002fe03002000002beed0ca
:100e5800f8bd002ef0d02b0034331b785bb2002b8a
:100e68001adb3400dbb2621eb95c994212d122004f
:100e780039002800fff7d6fea042e9d33f19341bfa
:100e880022003900686900f05bfe6b6930001c19ac
:0c0e98006c61dde7141ee6d13400f1e7c8
:020000040000fa
:100ea400f0b51d00012389b014000e9a06001a4003
:100eb4000391029201d1a5420ad82200039930007d
:100ec40000f0cefba54203d82500280009b0f0bdf0
:100ed4002f1b01973a00102f00d91022202104a8bb
:100ee40000f03afe019b0f2b0ed80f2204a93a40c2
:100ef400300000f0b5fb029b002be6d122000399e1
:100f0400300000f0adfbe0e7102204a9300000f04f
:0a0f1400a7fb019b103b0193e4e7eb
:020000040000fa
:020f1e00fee7ec
:020000040000fa
:100f2000546f67676c696e67204c4544206174207c
:100f3000353030206d696c6c697365636f6e6473f6
:100f40002072617465200d0a000000004c454420a9
:100f5000546f67676c696e6720726174652069738e
:100f6000206368616e67656420746f2025730d0ac5
:100f700000000000546f67676c696e67204c454441
:100f80002061742025732072617465200d0a0000b1
:020000040000fa
:100f900010b584291fd007dc812915d0822922d0e1
:100fa000802911d0002010bd90291cd008dc882990
:100fb000f8d119680c1d1c600b6803601a7010e0f2
:100fc000a02901d0c029edd119680c1d1c600b6847
:100fd00003601a6005e019680c1d1c600b68036053
:100fe0001a800120dfe719680c1d1c600b68036084
:080ff0001a60d2175a60f4e701
:020000040000fa
:100ff8007fb51600c2680d0013000091591e8b4181
:10100800f31a019383680400039269460222006878
:10101800029300f05ffc002808dc18220823024035
:101028005340626813436360060010e0019b8342eb
:10103800fad2a268c01ae3681018e2632064002b91
:1010480005d0531ce3631378ad19013d2b703000b4
:0410580004b070bdb3
:020000040000fa
:10105c0037b5164d04002b68002b0fd000f0aafcfe
:10106c00019001a800f02cfd0f230f30984301993b
:10107c0000f0dcfc00280cd000232b60002c00d1ed
:10108c0001340f230f349c4304d10c222000084b55
:10109c001a603ebd042c00d204242000fff702fe8f
:1010ac000028f6d0031f1c60f3e7c046740700202d
:0410bc007c0600208e
:020000040000fa
:1010c000f8b50024144d154e03e077610134102c5f
:1010d00020d063001b199b00eb181b899bb2a1b2a7
:1010e0008b42f3d173690127a7401f42eed0630002
:1010f0001b199b0008495b58002be6d008006300d1
:1011000019198900411849681b199b001b580800d0
:101110009847dae7f8bdc0460804002000280040e0
:020000040000fa
:1011200000230e4a10b513600d4a13600d4a136078
:101130000d4a13600d4a13600d4a53621361013367
:10114000936000f055fd00f092fc0a4c0a4b9c4263
:1011500000d310bd08cc9847f8e7c04678060020b9
:101160009c05002098050020900500209405002093
:0c117000a0050020b8000000bc0000003a
:020000040000fa
:10117c0070b504000d00002801d1002070bd43683b
:10118c009b0607d543698269934215d80023a36255
:10119c00a3616361e16b236c994204d2c91a0122e9
:1011ac00206800f05bfd00232364e3639d42e4d0e0
:1011bc00206800f046fde1e70022c36a1100984761
:0c11cc006369002be2d101204042d7e70c
:020000040000fa
:1011d80010b50d4a002111705160916011730b48d0
:1011e8000b4b58630b4c9c630b4c5c613f241955ab
:1011f8000a4959640a490180012111704d220231be
:101208009954084a1a8010bd1006002000060020d4
:101218000060004120060020818181810005800056
:0812280009040000020f0000a0
:020000040000fa
:1012300010b5124b06225a60114b1b68186800212a
:1012400000f0b4fc0f4b1b681868002100f0aefce6
:1012500000f090fafff792fc00f0bcf900f020fae1
:10126000fff78bfc00f062f8fff7b6fffff79efd7b
:1012700000f046f900f0faf810bdc0460040004109
:081280008c060020700700201d
:020000040000fa
:10128800f8b505000c000020002d20d000f0b8fab9
:10129800002c17d000200e4a0421072605e0178de0
:1012a8004300ef52013084420dd0137e0b42fcd034
:1012b800538b334207d153683340012befd0138d42
:1012c8002b54efe72000201a44426041c0b2f8bd19
:0412d80000080042c8
:020000040000fa
:1012dc00353030206d696c6c695365636f6e647367
:1012ec000000000031205365636f6e640000000045
:1012fc00000000000000000032205365636f6e6434
:10130c007300000000000000000000003420536552
:10131c00636f6e64730000000000000000000000aa
:020000040000fa
:10132c00114b01221a7019000b8c1342fcd10f4b7c
:10133c001b681a02e021c9000a409b065b0f1a4386
:10134c00094b9a8502225a7001325a7382329a7072
:10135c0000221a8104325a8107229a711a00138cc6
:10136c009bb2002bfbd170470044004220608000f0
:020000040000fa
:10137c00f0b50f0087b0039015001049072204a8a0
:10138c001c0000f0dbfbbb687e6802933f68002dfd
:10139c0000d104ad002c03d1280000f063fb040045
:1013ac00002e02dbb44200d934000097029b2200cd
:1013bc0029000398fff770fd07b0f0bd401c00003a
:020000040000fa
:1013cc0070b5040016001d00022a1cd043689b0651
:1013dc0019d4002908d1002d01d18025ed00280059
:1013ec000830fff735fe010020236268a16013432b
:1013fc0063602300e5603433ff22012e00d10a2202
:10140c001a70024be362002070bdc046290e00002a
:020000040000fa
:10141c0030b51500012289b0524201920432ff32dc
:10142c000292002800d16846002403900491a14246
:10143c0000d04c1e0594002906da4f220120074be0
:10144c0040421a6009b030bd00220790027006902d
:10145c001a00290001a800f011fbf3e77c0600201c
:020000040000fa
:10146c00bff35f8f62b60f4bc02080001a580e4935
:10147c001140c02212040a431a5004221a601a584e
:10148c001202120ac02109060a431a5008221a60d5
:10149c0004301a581202120a0a431a5080221a6097
:0c14ac007047c04600e100e0ffff00ffb9
:020000040000fa
:1014b80010b5064c2378002b07d1054b002b02d022
:1014c800044800e000bf0123237010bde0050020a0
:1014d8000000000000000000044b10b5002b03d0f2
:1014e8000349044800e000bf10bdc04600000000ea
:0814f800e405002000000000e3
:020000040000fa
:101500000f4b01221a8019000b691a42fcd10c4bb7
:101510000c4a1a801900802212020b691342fcd176
:10152000074b802292001a621900e13aff3a0b69d8
:101530001a42fcd1024b802252005a817047c046a9
:08154000002400408081ffff40
:020000040000fa
:1015480010b50a4b98470a4b984700f0c1f8094b69
:10155800ff229343084a9360084b9847084b9847e3
:10156800084b9847fff728f9fee7c046ff19000027
:10157800ff1900000000000000ed00e0211100004c
:08158800ff190000ff1900002b
:020000040000fa
:1015900070b5002818d0002918d000250c4a012465
:1015a000072605e06b00c35a13850135a94209d00f
:1015b000137e2342fcd053683340012bf2d0435dad
:1015c0001385f2e7012070bd0020fce70120fae757
:0415d00000080042cd
:020000040000fa
:0c15d400014b84225a6070470040004127
:020000040000fa
:1015e000eff309800e4a1168243808607346f8c08a
:1015f00044464d4656465f46f0c072b6fff794f932
:1016000062b6074a116808681430f0c8a046a946b7
:10161000b246bb4680f309882438f8c81847c0464c
:04162000fc050020a5
:020000040000fa
:10162400030010b51a78202a0dd0110009390429b5
:1016340009d900212b2a02d02d2a01d101310133ed
:1016440000200a2404e00133ece760430133801aec
:101654001a78303a092af8d9002900d1404210bd3d
:020000040000fa
:10166400436870b50400d80512d52569954200d9a0
:101674001500002d0bd02a00606900f063fa22697e
:1016840063695b19551b0022636125611a7070bd83
:0c169400db06fcd4200000f07dfaf8e733
:020000040000fa
:1016a0000a4b0b4a1a600b4a9a81c02292025a6076
:1016b0001a00d369002bfcd1044a136802210b43a2
:1016c0001360d369002bfcd17047c046000800426c
:0816d000040112402bf6ffff9c
:020000040000fa
:1016d80010b50a480168002903d14368002b00d1de
:1016e80010bd04008368064a9bb20c349b009b58cb
:1016f80042682000984780002018ebe708040000a3
:04170800341b00008e
:020000040000fa
:10170c00f0b5050000200a4a4400a65c002e02d168
:10171c0012195078f0bd296801300f78c0b2b74269
:10172c0003d112190131507829600a28ebd9f1e75d
:04173c00b61a0000d9
:020000040000fa
:10174000074b1a68002a01d1064a1a60064a116836
:10175000002901d1054911601a68054b1a607047cc
:101760004406002080070020400600208009002059
:041770003c06002013
:020000040000fa
:101774008223db05802212041a6052081a610122b6
:1017840040215a5401315a5455323c39995401324a
:1017940003399954273a313199540b320021995421
:0217a40070478c
:020000040000fa
:0217a600fee75c
:020000040000fa
:1017a80010b5084b9a8992b207494a60074a9a814c
:1017b8009b890b68002b04d00b00486889681b685c
:1017c800984710bd0024004030060020ff81ffff2d
:020000040000fa
:1017d80070b5094d04002b68002b01d1fff7acff51
:1017e800064a286812680419a24201d32c6070bd09
:1017f80001204042fbe7c0463c060020400600208e
:020000040000fa
:10180800094b5b8b5b070dd0074b80221a76793a20
:101818005a831b7e5b0705d5034b04211a8d1a7e5c
:0c1828000a42fbd17047c0460008004295
:020000040000fa
:10183400084b1b681b68002b04d1074b0122524242
:101844001a607047034b1b68db681a68024b1a6006
:0c185400f7e7c0465006002060060020a8
:020000040000fa
:10186000002380290fdb812901dd83290bd107218a
:10187000136807338b431900083111601a685b68dd
:0a1880000260436001231800704766
:020000040000fa
:10188a00020000234832d356591e0b431370042317
:10189a004268134005d0102313434360012040429d
:0a18aa0070470364c3631800fae7f7
:020000040000fa
:1018b40030b543001b189b00064ce3181b899bb2f0
:1018c400834200d030bd43001d18ad00295160197a
:0818d4004260f7e70804002060
:020000040000fa
:1018dc00f7b5002507000c002e000192019b9e42db
:1018ec0001db2800febd62682168380000f03cf87e
:0818fc0001362d180834f1e754
:020000040000fa
:10190400f7b5002507000c002e000192019b9e42b2
:1019140001db2800febd62682168380000f07cf815
:0819240001362d180834f1e72b
:020000040000fa
:10192c0010b500f07bf90400fef780fe002803d010
:10193c00034b802252051a60200000f07ff910bd85
:04194c0004ed00e0c6
:020000040000fa
:10195000074a1168086804c8022181f314882030fe
:1019600080f30988bff36f8f1047c046c046c0465a
:04197000fc05002052
:020000040000fa
:1019740010b50c000023002809d10300002a06d06a
:1019840001212000fff77efc0028f9d00123180074
:0219940010bd84
:020000040000fa
:0a19960010b5006800f03ff810bd26
:020000040000fa
:1019a00004207146084202d0eff30980b8e0eff35b
:1019b0000880b5e0c046c046c046c046c046c046e6
:020000040000fa
:1019c00010b5054c2368002b01d1fff7b9fe034b7e
:1019d00018682368c01a10bd3c060020400600208d
:020000040000fa
:1019e000002310b5934206d103201840421e9041b7
:0e19f0009b08c01810bdc45ccc540133f2e754
:020000040000fa
:0219fe00704730
:020000040000fa
:101a0000054a138802210b431380110002220b693f
:0c1a10001a42fcd17047c0460024004080
:020000040000fa
:101a1c0070b50d001400012801d0200070bd21000c
:0c1a2c002800fff7affd0028f9d0f6e716
:020000040000fa
:101a38000023054a10b514689c4203d11060036165
:0c1a480001600133180010bd8006002072
:020000040000fa
:101a540010b50400fff717ff002805d1a368e2685a
:0a1a6400a36163619b18a36210bd2b
:020000040000fa
:021a6e007047bf
:020000040000fa
:101a70000378002b06d0030001331a78002afbd12b
:081a8000181a70470020fce772
:020000040000fa
:101a880013b50400019201aafef71cfb6368db068c
:081a980001d50120404216bdfa
:020000040000fa
:101aa0000eb403b503aa02ca019200f06bf802b0ab
:061ab00008bc03b018475a
:020000040000fa
:101ab60068076c094c836a9074a07ac000806888b5
:061ac60000846c82008127
:020000040000fa
:101acc00006810b5002801da002010bdfff77efe7b
:061adc00431cfad1f8e7fb
:020000040000fa
:021ae20070474b
:020000040000fa
:101ae400034b9861190008220b691a42fcd1704714
:041af400002400408a
:020000040000fa
:101af800034b1862190020220b691a42fcd1704767
:041b08000024004075
:020000040000fa
:101b0c00012800d07047024b01221a70fae7c04638
:041b1c008706002018
:020000040000fa
:101b200010b58369023b1b78642b00d010bdfff712
:041b30000ffffbe7c1
:020000040000fa
:101b3400bf1b0000e1190000591c0000591c0000e3
:041b4400591c000028
:020000040000fa
:101b480010b5002a05d00023cc5cc454013393425d
:041b5800fad110bdf1
:020000040000fa
:101b5c00002a06d00300c9b28218197001339342cf
:041b6c00fbd17047f2
:020000040000fa
:101b700010b500f061f8024b1860586010bdc04607
:041b800048060020f3
:020000040000fa
:101b840010b513000a000249fff746fc10bdc04619
:041b9400ffffff7fd1
:020000040000fa
:101b9800c36a10b5002b01d0984710bd0068fff745
:041ba80039fffae720
:020000040000fa
:101bac004a424a41802310b55200db00fff708fc83
:021bbc0010bd5a
:020000040000fa
:101bbe008a18914201d10020704700230b70013129
:021bce00f7e737
:020000040000fa
:101bd00003010248c018416082607047100600206f
:020000040000fa
:101be000c30502d5014b01221a70704785060020fb
:020000040000fa
:101bf00010b5fff7bdfffff774fffff772ff10bdd1
:020000040000fa
:0e1c00000300413b192b01d8202318437047e5
:020000040000fa
:021c0e0070471d
:020000040000fa
:0c1c1000014b18609960704730060020fe
:020000040000fa
:0c1c1c00014b01221a7070478406002062
:020000040000fa
:081c2800eff3108072b6704763
:020000040000fa
:081c3000286e696c29002500f3
:020000040000fa
:081c380000487047f40600208b
:020000040000fa
:071c4000286e756c6c290091
:020000040000fa
:061c480080f310887047d4
:020000040000fa
:061c4e0001204042704736
:020000040000fa
:041c540072b6fee77f
:020000040000fa
:041c580000207047b1
:020000040000fa
:041c5c0000207047ad
:020000040000fa
:041c600000207047a9
:020000040000fa
:041c640000207047a5
:020000040000fa
:041c680000207047a1
:020000040000fa
:0200000400807a
:04400000ff00fe03bc
:020000040000fa
:0200000400807a
:0440040000fcffffbe
:00000001FF
